:020000040800F2
:1000000060F4012015030008676500081536000834
:10001000636500087D0F0008FBB5000800000000C4
:100020000000000000000000000000005D02000869
:10003000F91B000800000000B1020008059A000842
:100040002F0300082F0300082F0300082F030008C8
:100050002F0300082F0300087D2C0008CD2C00087A
:100060002F0300082F0300081D2D00082F03000890
:100070002F0300082F0300082F0300082F03000898
:100080002F0300082F0300082F0300082F03000888
:10009000810F00082F0300082F0300086D2D0008B2
:1000A0002F0300082F0300082F0300082F03000868
:1000B000A19B00082F0300082F0300082F0300084E
:1000C0002F0300082F0300082F0300082F03000848
:1000D000A99700082F030008D5B100082F030008D6
:1000E0002F0300082F0300082F0300082F03000828
:1000F0002F0300082F0300082F0300082F03000818
:100100002F0300082F0300082F0300082F03000807
:100110002F0300082F0300082F03000805AE000876
:100120002F0300082F0300082F0300082F030008E7
:100130002F0300082F0300082F0300082F030008D7
:100140002F0300082F0300082F0300082F030008C7
:100150002F0300082F0300082F0300082F030008B7
:100160002F0300082F0300082F0300082F030008A7
:100170002F0300082F0300082F0300082F03000897
:100180002F0300082F0300084B1C012B98BF70475A
:100190002DE9F003911C9B08B1F80480B1F802909E
:1001A0000A8831F802CC8044814402448444D9F85E
:1001B0000070D8F800601568DCF80040C9F80060ED
:1001C000C8F80070CCF800501460D9F80470D8F862
:1001D00004605568DCF80440C9F80460C8F804708D
:1001E000CCF80450546008315B1ED5D1BDE8F00353
:1001F00070474B1C012B98BF70472DE9F003911CF1
:100200009B08B1F80480B1F802900A8831F802CC5A
:1002100000EB580800EB590900EB520200EB5C0CB4
:10022000D9F80070D8F800601568DCF80040C9F80B
:100230000060C8F80070CCF80050146008315B1EF4
:10024000DFD1BDE8F0037047DFF80CD000F0B2FB5F
:1002500000480047A1DD000860F401202A4B19681E
:100260000868B0E8F04F80F30988BFF36F8F4FF054
:10027000000080F311887047000000000648006805
:10028000006880F3088862B661B6BFF34F8FBFF392
:100290006F8F00DF00BF00BF08ED00E0DFF80C004B
:1002A000016841F470010160704700BF88ED00E013
:1002B000EFF30980BFF36F8F134B1A681EF0100F16
:1002C00008BF20ED108A20E9F04F106008B44FF00D
:1002D000500080F31188BFF34F8FBFF36F8F0FF083
:1002E00015F94FF0000080F3118808BC1968086800
:1002F000B0E8F04F1EF0100F08BFB0EC108A80F38A
:100300000988BFF36F8F7047F4010020EFF3058079
:10031000704700000648804706480047FEE7FEE7B2
:10032000FEE7FEE7FEE7FEE7FEE7FEE7FEE7FEE7A5
:10033000159A00084902000840EA01039B0703D010
:1003400009E008C9121F08C0042AFAD203E011F814
:10035000013B00F8013B521EF9D27047D2B201E0D6
:1003600000F8012B491EFBD270470022F6E710B5BA
:1003700013460A4604461946FFF7F0FF204610BD13
:100380002DE9FE4F804681EA0300C00F0C46009025
:1003900021F0004123F00045B8EB0200A94105D24D
:1003A0004046214690461C460B46024623F000403C
:1003B000104347D0270DC7F30A00C3F30A51029038
:1003C000401A019040286BDAC3F3130040F4801BFD
:1003D0000098924620B10023D2EB030A63EB0B0B8B
:1003E00001985946C0F14002504600F016FA064600
:1003F0000D4650465946019A00F01EFA10EB0800CF
:100400006141002487EA115284EAE7731A4340D01D
:10041000009A62B3019A012A4FEA075215DC001BC9
:1004200061EB02014FF0004202EA0752CDE90042BF
:10043000001C41F5801132462B4600F055FA03B0FE
:10044000BDE8F08F40462146F9E7001B61EB020151
:10045000001C41F5801300185B412018A2F500171D
:1004600047EB030140EAD570B6196D4111E06D0804
:100470004FEA360645EAC0754FEA0752001B61EBAA
:100480000201001C41F5801149084FEA30000019B3
:10049000514132462B4603B0BDE8F04F00F015BA8B
:1004A0000098012240000023D0EB020263EBE073CE
:1004B000009821464FEAE074B8EB000061EB0401BC
:1004C000E9E783F000435BE781F0004158E72DE95D
:1004D000FE4F81EA030404F0004421F0004100943F
:1004E0004FF0000B23F0004350EA01045ED052EAC3
:1004F00003045BD0C3F30A54C1F30A552C44A4F29D
:10050000F3340194A0FB0254C1F3130141F48011B0
:10051000C3F3130343F4801301FB024400FB034EB7
:10052000840A970A44EA815447EA8357A4FB076880
:1005300002958D0A05FB07854FEA932C04FB0C54AA
:100540002705029D4FEA065847EA1637B5EB08051E
:100550006EEB070C870E920E47EA811742EA831270
:10056000A7FB0201B6EB0B0164EB00042B0D43EA81
:100570000C335E1844EB1C50DA465146E7FB02018F
:10058000C5F313044FEA0B3343EA14534FEA043222
:10059000019C43EA0603A4F10C040294009CCDE9FB
:1005A00000B400F0A1F903B0BDE8F08F00200146CF
:1005B000F9E72DE9F04D81EA030404F0004B21F046
:1005C000004514464FF0000A23F0004150EA0502AE
:1005D00020D054EA01021DD0C5F30A570246C5F3E4
:1005E0001303C1F31300C1F30A5640F4801543F41A
:1005F0008013A7EB0608101BD64608F2FD3873EBF4
:10060000050002D308F1010801E092185B41B8F13E
:10061000000F03DA00200146BDE8F08D00204FF402
:100620008011064684460EE0171B73EB050705D3C1
:10063000121B63EB050306434CEA010C49084FEA21
:10064000300092185B4150EA0107EDD152EA0300F5
:1006500012D082EA040083EA0501084305D0101B8A
:10066000AB4106D20122002306E000224FF00043F6
:1006700002E06FF0010253101AEB06004CEB085138
:1006800010EB0A0041EB0B01BDE8F04D00F01DB985
:100690000EB5C10F80EAE0700844CA07002140F29D
:1006A00033438DE80E000A460B4600F01DF903B0F7
:1006B00000BD0EB540F2334102910021CDE9001199
:1006C0000A460B4600F010F903B000BD00F00042EE
:1006D00030F000400AD0C10D01F56071C0F3160082
:1006E00042EA0151C2084007114370470020014609
:1006F0007047000030B5041E71F1000404DB4FF0B8
:100700000044404264EB0101141E73F1000405DB58
:100710001C464FF00043524263EB04038B4208BF78
:10072000824230BD30B5041E71F1000404DB4FF08D
:100730000044404264EB0101141E73F1000405DB28
:100740001C464FF00043524263EB0403994208BF3A
:10075000904230BD01F0004330B421F0004150EA36
:10076000010206D00A0DA2F56072C1F31301002A3E
:1007700002DC30BC00207047440F44EAC104C100D1
:10078000E01830BC00EBC25000F068B830B50B4642
:10079000014600202022012409E021FA02F59D42B1
:1007A00005D303FA02F5491B04FA02F52844151E85
:1007B000A2F10102F1DC30BD2DE9F05F0546002019
:1007C00092469B4688460646814640241BE02846C2
:1007D00041464746224600F0FFF853465A46C01AA3
:1007E000914110D311461846224600F016F82D1AF2
:1007F00067EB01084F4622460120002100F00DF86A
:1008000017EB00094E41201EA4F10104DFDC48462D
:1008100031462A464346BDE8F09F202A04DB203AB1
:1008200000FA02F1002070479140C2F1200320FA43
:1008300003F3194390407047202A06DBCB17203A78
:1008400041FA02F043EAE07306E041FA02F3D040D5
:10085000C2F1200291400843194670470029A8BF01
:100860007047401C490008BF20F00100704710B4D9
:10087000B0FA80FC00FA0CF050EA010404BF10BC8E
:10088000704749B1CCF1200421FA04F411FA0CF1BB
:1008900018BF012121430843A3EB0C01CB1D4FEAF4
:1008A00000614FEA102042BF002010BC704700EBEF
:1008B000C35010440029A4BF10BC7047401C49001D
:1008C00008BF20F0010010BC704710B5141E73F172
:1008D000000408DA401C41F1000192185B411A4300
:1008E00001D120F0010010BD2DE9F04D92469B464C
:1008F00011B1B1FA81F202E0B0FA80F220329046F2
:10090000FFF78BFF04460F4640EA0A0041EA0B015D
:1009100053465A46084313D0114653EA010019D0F2
:10092000C8F14002504600F057F805460E465046C2
:1009300059464246FFF771FF084305D0012004E005
:1009400020463946BDE8F08D0020054346EAE076B2
:100950002C4337430A986305E40AA0EB0800002201
:10096000FD0A44EA47540A3002D500200146E9E76F
:10097000010510196941DDE9084500196941BDE823
:10098000F04DA2E7C1F30A52C1F3130140F2FF3365
:1009900041F480119A4202DA00200146704740F289
:1009A00033439A42A2F2334202DC524200F014B8BE
:1009B000FFF733BF064C074D06E0E06840F0010347
:1009C00094E8070098471034AC42F6D3FFF740FC98
:1009D000E8E6040808E70408202A04DB203A21FAA4
:1009E00002F00021704721FA02F3D040C2F1200248
:1009F000914008431946704770B58C1810F8015B98
:100A000015F0070301D110F8013B2A1106D110F8A7
:100A1000012B03E010F8016B01F8016B5B1EF9D1AB
:100A20002B0705D40023521E0DD401F8013BFAE731
:100A300010F8013BCB1A921C03E013F8015B01F89C
:100A4000015B521EF9D5A142D8D3002070BD21B15F
:100A5000826842F00102826003E0826822F00102B3
:100A6000826070470021084A1168084A1140D0E9A5
:100A700000231A4383681A43C3681A431143044A84
:100A8000C2F804137047000004230140E030FCFF6B
:100A90000020014021B1826842F48072826003E04C
:100AA000826822F4807282607047000030B502468E
:100AB000002000235068104C20400D790C6844EA57
:100AC00005242043506090680C4C2040D1E9035429
:100AD0002C438D682C434D7944EA450420439060B3
:100AE000D06A20F470000C7D641EE4B2234340EA17
:100AF0000350D06230BD0000FFFEFFFCFDF7FFC0D9
:100B0000F0B504460D4600200021092D11DDE068F6
:100B1000A5F10A0606EB4607072606FA07F1884301
:100B2000A5F10A0606EB460603FA06F10843E06063
:100B30000CE0206905EB4507072606FA07F1884314
:100B400005EB450603FA06F108432061072A0FDA90
:100B5000606B561E06EB86071F2606FA07F18843D0
:100B6000561E06EB860605FA06F10843606322E08E
:100B70000D2A0FDA206BD61F06EB86071F2606FA12
:100B800007F18843D61F06EB860605FA06F10843EF
:100B9000206310E0E06AA2F10D0606EB86071F262F
:100BA00006FA07F18843A2F10D0606EB860605FA60
:100BB00006F10843E062F0BDF8B504460D46002694
:100BC00026E0761CEAB2002142F21B0008F0CCFCC1
:100BD0001148007801280DD10F4880781B2808D1D2
:100BE0000D48C078202804D10B484079A04202D19A
:100BF00010E00DE00CE0E8B2022322460021009054
:100C000042F21B000AF066FE05200DF09FF800BFBF
:100C1000FF2ED6DB00BFF8BD840200207CB50EF0AD
:100C20001BF901248348012100238022CDE9001013
:100C300081A184480FF0CEF90446012C01D000BFF9
:100C4000FEE70EF0B9FC80490860804801210023CE
:100C50008022CDE900107EA180480FF0BBF9044648
:100C6000012C01D000BFFEE70EF0A6FC7C49086015
:100C70000322002101200EF097FE7A49086000232C
:100C80001A461946774800680EF0FCFF76480121A5
:100C900000238022CDE9001074A177480FF09AF963
:100CA0000446012C01D000BFFEE774480121002357
:100CB0008022CDE9001072A175480FF08BF904462F
:100CC000012C01D000BFFEE70322002101200EF01D
:100CD0006BFE7049086000231A4619466D4800688B
:100CE0000EF0D0FF6C4800230122052100906BA07C
:100CF0000FF0F0FC6D4908600FF0E4FA05460020A3
:100D000003462A4601210090684800680FF036FD2E
:100D10006748012100238022CDE9001065A16948C0
:100D20000FF058F90446012C01D000BFFEE76648D9
:100D3000012100238022CDE9001064A166480FF054
:100D400049F90446012C01D000BFFEE763480023A7
:100D500001221146009062A00FF0BCFC65490860BA
:100D60000FF0B0FA0546002003462A460121009004
:100D7000604800680FF002FD5F48012100238022D7
:100D8000CDE900105DA160480FF024F90446012C64
:100D900001D000BFFEE70022102105200EF004FE66
:100DA0005A4908605A48012100238022CDE90010E9
:100DB00058A15C480FF00EF90446012C01D000BF89
:100DC000FEE75948002301220521009057A00FF0AB
:100DD00081FC5B4908600FF075FA05460020034668
:100DE0002A4601210090564800680FF0C7FC55487C
:100DF000012100234FF4C052CDE9001052A1574801
:100E00000FF0E8F804465648022100238022CDE97D
:100E1000001054A157480FF0DDF80446012C01D012
:100E200000BFFEE7544800680EF0BEF90EF056F819
:100E30007CBD0000280000204C45445F5461736B6A
:100E40000000000051650008500000202C00002028
:100E50004B45595F5461736B00000000DD3700089B
:100E60005400002058000020300000204F4C454422
:100E70005F5461736B000000D568000834000020E7
:100E8000454E434F4445525F5461736B0000000070
:100E9000012C000860000020A1B100085553415208
:100EA000545F54585F54696D657200005C00002007
:100EB0003800002055534152545F54585F546173B9
:100EC0006B000000C5B40008400000204368616961
:100ED00072705F5461736B00AD170008711B0008DE
:100EE00044454C41595F5550444154455F54696DE8
:100EF00065720000640000203C00002044454C4125
:100F0000595F5461736B0000D11A0008680000201B
:100F10004400002055534152545F52585F5461734E
:100F20006B000000F1B30008853300084646545FAB
:100F3000414E414C5953455F54696D657200000044
:100F40006C000020480000204646545F414E414C52
:100F50005953455F5461736B00000000353300083E
:100F60004C0000205350495F5461736B5F546173B0
:100F70006B000000CB9800082400002000BFFEE7B3
:100F800010B586B00221214800F0CAF800283AD0F6
:100F900001AA00211D4800F0E6F9002409E0C4F18F
:100FA0000102D2000198D040C1B219480AF088FB72
:100FB000641C022CF3DB002406E00DF10F00015D40
:100FC00013480AF07DFB641C9DF80E00A042F4DC7F
:100FD00001201049087000BF06E0411E0DF10F020C
:100FE000515C0C4A1154401C9DF80E108142F4DAF9
:100FF0009DF80E10481C03E00021064A1154401CC5
:101000000828F9DD00BF06B010BD000000640040F4
:10101000004400408402002010B50021837A0122A0
:1010200002FA03F13D4A126842F001023B4B1A609A
:101030003A4A1C3212688A43384B1C331A60027BCE
:10104000CAB9364A0C3212688A43344B0C331A60E0
:101050004288C38842EA0343304A4032847A42F8E5
:1010600034300288838842EA03432C4A4032847A2F
:1010700002EBC4025360027B012A19D1274A0C32C9
:1010800012680A43254B0C331A604288038842EAEF
:101090000343224A4032847A42F83430C28883883B
:1010A00042EA03431D4A4032847A02EBC402536091
:1010B000C27A3AB9194A121D12688A43174B1B1D8E
:1010C0001A6006E0154A121D12680A43134B1B1DD5
:1010D0001A60028932B9114A143212688A430F4BDE
:1010E00014331A600289012A06D10C4A143212689C
:1010F0000A430A4B14331A60427B012A06D1074A7D
:101100001C3212680A43054B1C331A60034A1268EA
:1011100022F00102014B1A6010BD00000066004081
:1011200070B504460D46002660692840002871D03D
:10113000B5F5807F5CD010DC082D35D006DC012DA4
:1011400020D0022D24D0042D72D127E0102D31D0D3
:10115000202D35D0402D6BD138E0B5F5004F60D053
:1011600009DCB5F5007F49D0B5F5806F4CD0B5F5F9
:10117000006F5DD14FE0B5F5803F2DD0B5F5003F54
:1011800056D12FE0A0682D4900F0E4FB064651E05F
:10119000E068032100F0DEFB06464BE0E068082132
:1011A00000F0D8FB064645E0E068102100F0D2FBD5
:1011B00006463FE02069032100F0CCFB064639E0FB
:1011C0002069082100F0C6FB064633E020691021A3
:1011D00000F0C0FB06462DE06068082100F0BAFB75
:1011E000064627E06068102100F0B4FB064621E0C7
:1011F000A069012100F0AEFB06461BE0A0690221B8
:1012000000F0A8FB064615E0A069042100F0A2FB4F
:1012100006460FE00FE0A069702100F09BFB064638
:1012200008E06068042100F095FB064602E0FFE755
:10123000002600BF00E00026304670BD010101001D
:101240001AB143690B43436102E043698B43436135
:10125000704730B5024600200023146824F00204D1
:101260001460146844F00104146000E05B1C5468CE
:1012700004F001041CB94FF6FF74A342F6D1546880
:1012800004F001040CB900206CE08C79012C04D12D
:10129000146844F08004146003E0146824F08004AF
:1012A0001460CC79012C04D1146844F0400414601B
:1012B00003E0146824F0400414600C7A012C04D17B
:1012C000146844F02004146003E0146824F020043F
:1012D00014604C7A012C04D1146844F0100414609A
:1012E00003E0146824F0100414608C7A012C04D1FB
:1012F000146844F00804146003E0146824F008043F
:101300001460CC7A012C04D1146844F004041460F5
:1013100003E0146824F0040414608C78A407CD78EA
:1013200044EA05640D7944EA05444D7944EA0554DC
:101330000D886D1E2C43D461146824F001041460E0
:10134000002300E05B1C546804F001041CB14FF65C
:10135000FF74A342F6D1546804F001040CB10020DC
:1013600000E0012030BD10B500F5D87303EB011388
:101370001B6803F004031372137A53B900F5D87392
:1013800003EB01131B6840F2FF7404EA535313602C
:1013900009E000F5D87303EB01131B686FF060449C
:1013A00004EAD303536000F5D87303EB01131B6801
:1013B00003F00203537200F5D87303EB01135B686B
:1013C00003F00F03937200F5D87303EB01135B680E
:1013D0001B0AD37400F5D87303EB01139B68D37217
:1013E00000F5D87303EB01139B681C0A147300F516
:1013F000D87303EB01139B681C0C547300F5D8736E
:1014000003EB01139B681B0E937300F5D87303EB7A
:101410000113DB68D37300F5D87303EB0113DB68AA
:101420001C0A147400F5D87303EB0113DB681C0C61
:10143000547400F5D87303EB0113DB681B0E93742F
:1014400021B9C36843F02003C36003E0036943F09C
:101450002003036110BD10B502460020936803F01D
:101460008063B3F1806F00D110E0936803F00063F4
:10147000B3F1006F01D1012008E0936803F08053BD
:10148000B3F1805F01D1022000E00420042874D071
:1014900002F5C07303EB00131B6803F0010402F5AF
:1014A000C07303EB00131C600B7A7BB94B7A0C887A
:1014B00043EA445302F5C07404EB00142468234348
:1014C00002F5C07404EB0014236010E00B7A4C6842
:1014D00043EAC4034C7A234302F5C07404EB0014BE
:1014E0002468234302F5C07404EB001423608B7A54
:1014F00003F00F038B7202F5C07303EB00135B68FC
:1015000023F00F0402F5C07303EB00135C6002F5D7
:10151000C07303EB00135B688C7A234302F5C0743D
:1015200004EB001463608B7B1C064B7B44EA034492
:101530000B7B44EA0323CC7A234302F5C07404EB0B
:101540000014A3608B7C1C064B7C44EA03440B7C98
:1015500044EA0323CC7B234302F5C07404EB00145C
:10156000E36002F5C07303EB00131B6843F0010452
:1015700002F5C07303EB00131C6010BD70B52DEDB8
:10158000088B0446218A204600F068FB00EE100A12
:10159000B8EEC00AD4ED030A20EE200A10EE105A6D
:1015A0002846FFF793F841EC1B0B9FED0C0B53EC17
:1015B000102BFEF78CFF41EC1A0B9FED0A0B53EC3E
:1015C000102BFEF7F6FF41EC190BFFF7C3F808EEFE
:1015D000100AB0EE480ABDEC088B70BD8DEDB5A0C9
:1015E000F7C6B03E000000000000084010B52DED29
:1015F000028BADF5415D4FF480522348016810A87D
:10160000FEF79AFE4FF480610AA80CF07BFA0023E3
:101610000DF5825210A90AA80CF04EFA4FF4806220
:101620001A4801680DF582500BF0FBFB08AB09AAC4
:101630004FF40071154800680BF063FC9DED090A3A
:10164000DFED130A80EE201A8DED091A9DED080AD0
:10165000B8EE400ADFED0F0A20EE200ADFED0E0A99
:1016600080EE201AB0EE418A089838B99DED090A3B
:10167000F0EE000A80EE201A8DED091A0DF5415D9D
:10168000BDEC028B10BD0000E8010020EC01002041
:1016900000000044000048430000804410B58AB0B8
:1016A00000240121084607F0BBFE02208DF824002B
:1016B00000208DF826004FF40060089000208DF87F
:1016C000270003208DF8250008A9354801F0BCFE4D
:1016D0004FF48050089008A9314801F0B5FE092266
:1016E0000B212F4801F0F8FE09220C212C4801F0B3
:1016F000F3FE0121480607F0A3FE00208DF81B0031
:101700008DF81C008DF81D008DF81E008DF81A0054
:101710008DF81F008DF8160003208DF817000720A4
:101720008DF8180002208DF819000E20ADF8140075
:1017300005A91C48FFF78DFD044614B101201A4984
:10174000087000208DF80E008DF80F0001208DF834
:1017500010000020ADF80400ADF80600ADF8080058
:10176000ADF80A00ADF80C0001208DF8110001A8B9
:10177000FFF752FC14208DF8000001208DF80300C3
:101780008DF8010000208DF80200684604F0ECFEA0
:10179000012202210348FFF753FD0AB010BD0000EB
:1017A0000000024000640040A4000020002411E07A
:1017B0004FF0FF3101200DF0B5FA044604F00100AE
:1017C00010B1054809F0DAFE04F0020010B1034838
:1017D00009F0D4FEECE70000300100206001002099
:1017E000DFED110AB4EEE00AF1EE10FA04DDDFEDF0
:1017F0000E0AB0EE600A08E0B5EEC00AF1EE10FA8B
:1018000003D2DFED0A0AB0EE600AB1F5004F01DB4A
:10181000002104E042F20F72914200DD1146018284
:1018200080ED030A70470000003C1C4600000000E9
:1018300070B52DED068B0446B0EE408AF0EE608A5E
:10184000B0EE419A0D469FED3F0AF4EEC08AF1EEEC
:1018500010FA04DD9FED3B0AF0EE408A08E0F5EE59
:10186000C08AF1EE10FA03D29FED370AF0EE408AFB
:101870009FED340AB4EEC09AF1EE10FA04DD9FED4C
:10188000310AB0EE409A08E0B5EEC09AF1EE10FAD7
:1018900003D29FED2D0AB0EE409AB5F1704F01D3FF
:1018A000002504E0B5F57A7F01D340F2E735E06A20
:1018B000407D012815D1B1EE040AB4EEC08AF1EEE4
:1018C00010FA04DDB1EE040AB0EE408A28E0B5EE6D
:1018D000C08AF1EE10FA23D29FED1B0AB0EE408AC7
:1018E0001EE0E06A407D02281AD118EE100AFEF7C9
:1018F000EDFE41EC1A0B9FED150B53EC102BFEF790
:1019000011FF04D2B2EE080AB0EE408A08E0B5EE4C
:10191000C08AF1EE10FA03D29FED0B0AB0EE408AB6
:10192000E06A007D50B9E06A80ED028AE06AC0EDAD
:10193000008AE06A80ED019AE06AC560BDEC068B22
:1019400070BD0000CDCCC7420000000000000000C8
:10195000000028400246002002EA01030BB10120EA
:1019600000E000207047000010B5044620780128F0
:1019700009D1607838B100210A4809F061FB0020E4
:101980000949C88488622078022809D1607838B172
:101990000021064809F054FB00200549C8848862EC
:1019A00010BD000000000140300100200008004090
:1019B0006001002010B504462078012809D1607824
:1019C000012806D100210A4809F03AFB0020A08036
:1019D000E0802078022809D16078012806D1002112
:1019E000044809F02DFB0020A080E08010BD00001D
:1019F000000C00400004004038B5044601231A469C
:101A0000002141F20160009409F064FF0423084AB8
:101A1000012141F20160009409F05CFF0123FF22E3
:101A2000022141F20140009409F054FF38BD00004A
:101A30001000716039B1084A1268012383401A43CB
:101A4000054B1A6006E0044A1268012383409A435A
:101A5000014B1A60704700000074004030B500224E
:101A600000230A4C226840F6FE748440A243D1E968
:101A700000452C438D682C43CD6844EA050303FAE6
:101A800000F42243014C226030BD0000007400408D
:101A900008B500220092054A009200F10802009B5E
:101AA0001A440092009A116008BD000000740040C2
:101AB00008B500220092054A009200F11402009B32
:101AC0001A440092009A116008BD000000740040A2
:101AD00042E04FF0FF3101200DF024F91F488078DB
:101AE000032802D0042812D108E001F067FD1C4849
:101AF000B0F906101B4800F0C7F80DE001F05EFDDC
:101B00001948B0F90610174800F0BEF804E00021AB
:101B1000144800F0B9F800BF00BF1048C07803288F
:101B200002D0042812D108E001F048FD0C48B0F9B9
:101B300006100E4800F0A8F80DE001F03FFD0A483D
:101B4000B0F90610094800F09FF804E000210548AC
:101B500000F09AF800BF00BFBBE70000D2010020F0
:101B600090010020A80000209A010020BC00002065
:101B700010B50446002302221946024800680EF000
:101B800059FA10BD3C00002021B1026842F0010268
:101B9000026003E0026822F0010202607047000068
:101BA00010B500220268134B1A40CC680B6823431F
:101BB0004C6923438C692343CC6923430C6A234338
:101BC0004C6A23438C6A23434C6B23438C6B234323
:101BD0001A430260426922F00702D1E90B34234321
:101BE0001A4342610B6943604B6883608B68C36032
:101BF00010BD00003F801CF07047000070B5044627
:101C0000002525E06D1C2246002146F2410007F028
:101C1000ABFC1148007801280FD10F48807841288B
:101C20000AD10D48C078602806D10B48407900F0F1
:101C30006F00272802D00DE00AE009E023460222C7
:101C40000021084609F0E2FD05200CF07FF800BFF6
:101C5000FF2DD7DB00BF70BD840200200246B1F526
:101C60007A7F01DB002070471089401A03D4108965
:101C7000401A83B204E0108900F57A70401A83B2EA
:101C8000506830F91300EEE70289521C92B20281CB
:101C9000B2F57A7F01DB002202810389426822F8D3
:101CA0001310704700B589B00121084607F0B8FB52
:101CB00002208DF82000C001079000208DF823003D
:101CC00003208DF8210007A92A4801F0BDFB01225D
:101CD0000821284801F000FC4FF40070079007A984
:101CE000244801F0B1FB01220921224801F0F4FB54
:101CF0004FF48060079000208DF8200007A91D4850
:101D000001F0A2FB0121084607F0AAFB04A809F094
:101D100007FA4FF6FF7005900120ADF8100004A9F6
:101D2000154809F0BBF901A809F06FF90020ADF8DA
:101D300004000520ADF80C000020ADF80A000120D9
:101D4000ADF8080001A90C4809F028F90420ADF805
:101D5000040001A9084809F021F900231A460321CB
:101D6000054809F0DDF80121034809F0CDF809B074
:101D700000BD0000000002400000014000B587B037
:101D80000121084607F04CFB03208DF818001020B5
:101D9000059000208DF81B0005A90B4801F054FBAD
:101DA0000121480707F04CFB0020039004902420F9
:101DB00001900020029001A9FFF750FE01210020B0
:101DC000FFF738FE07B000BD0000024000B589B043
:101DD0000121022007F024FB02208DF82000402082
:101DE000079000208DF8230003208DF8210007A91B
:101DF000284801F029FB02220621264801F06CFB4D
:101E00008020079007A9234801F01EFB022207212A
:101E1000204801F061FB4FF48070079000208DF89E
:101E2000200007A91B4801F00FFB0121042007F047
:101E300007FB04A809F074F94FF6FF70059004A998
:101E4000154809F02BF901A809F0DFF80020ADF8DA
:101E500004000520ADF80C000020ADF80A000120B8
:101E6000ADF8080001A90C4809F098F80420ADF875
:101E7000040001A9084809F091F800231A4603213B
:101E8000054809F04DF80121034809F03DF809B073
:101E900000BD0000000402400008004000B587B00B
:101EA0000121084607F0BCFA03208DF81800202015
:101EB000059000208DF81B0005A90C4801F0C4FA1C
:101EC0000121480707F0BCFA002003900490242069
:101ED00001900020029001A91020FFF7BFFD012111
:101EE0001020FFF7A7FD07B000BD00000000024072
:101EF0000521417000214268D18270472DE9F041EF
:101F00002DED108B8AB004460F46904600EE107AF5
:101F1000B8EE400AB0EE408AE06A90ED000AB0EEFA
:101F2000409AE06A90ED010A8DED080AE06A90EDB2
:101F3000020AB0EE40AAE06AC06858B19DED080AF6
:101F400070EE490AE06A90ED030AB8EE400AC0EE6E
:101F5000808A01E0DFEDFE8ADFEDFE9A40F2E7368F
:101F60006068007D012877D1012568E0B8F1000F95
:101F700008D09FEDF70A6068406800EB850080EDAF
:101F8000000A5AE018EE100AFEF7A0FBCDE90401A2
:101F900018EE100AFEF79AFBCDE9020118EE900A3E
:101FA000FEF794FB41EC1D0B9FEDEB0B53EC102B5C
:101FB000FEF78DFACDE900019DED020B53EC102BDD
:101FC0009DED000B51EC100BFEF781FA41EC1C0B60
:101FD0009DED040B53EC102BFEF779FA29EE080A5D
:101FE000CDE9060110EE101A0846FEF76FFB41EC32
:101FF0001B0B9DED060B53EC102BFEF7C1F941ECCA
:102000001E0B9FEDD70B53EC102BFEF760FA41EC43
:102010001F0BFEF79FFB0AEE900AB0EE6A0A0BF068
:1020200015FE20EE0A0A6068406800EB850080ED2E
:10203000000A38EE290AB0EE408A681C85B2701C8E
:10204000854293DB00EE106AB8EE400A6068406893
:1020500080ED000A012573E081E0B8F1000F0BD09C
:102060009FEDBB0A6068406841F64471084400EB8C
:10207000850080ED000A61E018EE100AFEF726FBED
:10208000CDE9040118EE100AFEF720FB41EC1D0B10
:1020900018EE900AFEF71AFB9FEDAF0B53EC102BD6
:1020A000CDE900019DED000B51EC100BFEF70FFA8E
:1020B00041EC1E0B53EC1D2BFEF709FACDE9020192
:1020C0009DED040B53EC102B9DED020B51EC100B0E
:1020D000FEF7FDF941EC1C0B29EE080A10EE101A70
:1020E0000846FEF7F3FA53EC1C2BCDE906019DEDF3
:1020F000060B51EC100BFEF743F941EC1B0B9FED67
:10210000980B53EC102BFEF7E2F941EC1F0BFEF796
:1021100021FB0AEE900AB0EE6A0A0BF097FD20EE62
:102120000A0A6068406841F64471084400EB850083
:1021300080ED000A38EE290AB0EE408A681C85B2AC
:10214000701C854289DB781C00EE100AB8EE400A4C
:102150006068406800F5E05080EDD10A08E16068F1
:10216000007D0228FAD101256AE0B8F1000F08D0FD
:102170009FED770A6068006800EB850080ED000A3B
:102180005CE018EE100AFEF7A1FA41EC1B0B18EE0A
:10219000100AFEF79BFACDE9000118EE900AFEF74F
:1021A00095FA41EC1C0B9FED6C0B53EC102BFEF7DA
:1021B0008EF941EC1D0B9DED000B53EC102BFEF73F
:1021C00086F941EC1E0B53EC1B2BFEF780F929EE30
:1021D000080ACDE9040110EE101A0846FEF776FA57
:1021E000CDE902019DED040B53EC102B9DED020B8C
:1021F00051EC100BFEF7C4F841EC1F0B9FED580B90
:1022000053EC102BFEF763F9CDE906019DED060BAB
:1022100051EC100BFEF79EFA0AEE900AB0EE6A0A35
:102220000BF014FD20EE0A0A6068006800EB8500E0
:1022300080ED000A38EE290AB0EE408A681C85B2AB
:10224000701C854291DB00EE106AB8EE400A6068AF
:10225000006880ED000A01256EE0B8F1000F0BD098
:102260009FED3B0A6068006841F64471084400EB4A
:10227000850080ED000A5DE018EE100AFEF726FAF0
:10228000CDE9020118EE100AFEF720FACDE90001AF
:1022900018EE900AFEF71AFA41EC1C0B9FED2E0B7C
:1022A00053EC102BFEF713F941EC1E0B9DED000BC8
:1022B00053EC102BFEF70BF941EC1D0B9DED020BBF
:1022C00053EC102BFEF703F929EE080ACDE90401BF
:1022D00010EE101A0846FEF7F9F941EC1B0B9DEDC4
:1022E000040B53EC102BFEF74BF841EC1F0B9FED4A
:1022F0001C0B53EC102BFEF7EAF8CDE906019DED1F
:10230000060B51EC100BFEF725FA0AEE900AB0EE20
:102310006A0A0BF09BFC20EE0A0A6068006841F62E
:102320004471084400EB850080ED000A38EE290A6C
:10233000B0EE408A681C85B2701C85428DDB781C2B
:1023400000EE100AB8EE400A606800680CE0000079
:10235000000000006F12833A000000000000E03F20
:1023600000000060FB21194000F5E05080EDD10A2B
:102370000AB0BDEC108BBDE8F08100002DE9F04102
:102380002DED048BB0EE408AF0EE608A04460F46D5
:10239000002F52D000202178012925D101201FE0F3
:1023A000411E00EE101AB8EEC00ADFED6C0A20EEF6
:1023B000200A6B49096801EB800181ED000A411E8A
:1023C00000EE101AB8EEC00ADFED640A20EE200A13
:1023D0006349496801EB800181ED000A411C88B224
:1023E000B0F5FA6FDCDD27E02178022924D1012045
:1023F0001FE0411E00EE101AB8EEC00ADFED570ACA
:1024000020EE200A5749096801EB800181ED000A9E
:10241000411E00EE101AB8EEC00ADFED500A20EEA1
:10242000200A5049496801EB800181ED000A411CF6
:1024300088B2B0F5FA6FDCDD00BFB5EEC08AF1EE10
:1024400010FA01D101260CE0F7EE000A80EE880AAE
:10245000DFED420A80EE201ABCEEC10A10EE100A2F
:1024600086B26068007D012838D101252BE0B5EEE9
:10247000C08AF1EE10FA09D16068406841F64471F3
:10248000084400EB8500C0ED008A1AE060684068EF
:1024900000EB850090ED000ADFED330A68EE200ABC
:1024A00020EE209AB0EE490A0BF0D0FB20EE280A6D
:1024B0006068406841F64471084400EB850080ED97
:1024C000000A681C85B2B542D1DD00EE106AB8EE94
:1024D000400A6068406880ED000A3BE06068007D6B
:1024E000022837D101252BE0B5EEC08AF1EE10FAB3
:1024F00009D16068006841F64471084400EB85002A
:10250000C0ED008A1AE06068006800EB850090ED7D
:10251000000ADFED150A68EE200A20EE209AB0EEE0
:10252000490A0BF093FB20EE280A6068006841F628
:102530004471084400EB850080ED000A681C85B2F8
:10254000B542D1DD00EE106AB8EE400A606800685E
:1025500080ED000ABDEC048BBDE8F0816F12033AF8
:102560000001002018010020DB0FC94010B500F069
:10257000DDF9FFF797FBFFF729FCFFF7FFFBFFF7FC
:102580008DFC01202749487027494870254800F0F4
:1025900019FB254800F016FB002401243DE0601ED5
:1025A00000EE100AB8EEC00ADFED200A20EE200A85
:1025B0001F48006800EB840080ED000A601E00EEFA
:1025C000100AB8EEC00ADFED190A20EE200A1848FA
:1025D000406800EB840080ED000A601E00EE100AE7
:1025E000B8EEC00ADFED110A20EE200A114800689B
:1025F00000EB840080ED000A601E00EE100AB8EEC9
:10260000C00ADFED0A0A20EE200A0A48406800EB03
:10261000840080ED000A601C84B2B4F5FA6FBEDD60
:1026200010BD000030010020600100206F12033A4D
:1026300000010020180100200221417070470000B5
:1026400070B52DED068B0446B0EE408A6078012807
:1026500002D06078052848D1B1EE040AB4EEC08AF1
:10266000F1EE10FA04DDB1EE040AB0EE408A0AE0A1
:10267000B9EE040AB4EEC08AF1EE10FA03D2B9EE54
:10268000040AB0EE408AB1EE480ADFED190A20EEE6
:10269000200AB3EE001AC0EE010A9FED160A30EED2
:1026A000800A10EE106A3046FEF710F841EC1A0B63
:1026B0009FED110B53EC102BFDF762FE41EC190B53
:1026C000FEF748F808EE900A9FED0D0A28EE800A02
:1026D000DFED070A80EE201ABCEEC10A10EE100AE8
:1026E00085B284ED038A258100BFBDEC068B70BDE9
:1026F000333353403333D33F47E17A14AEC7D53F2A
:1027000000F07F4510B52DED048BF0EE408AB0EE61
:10271000608A0446B3EE040AF4EEC08AF1EE10FAC1
:1027200004DDB3EE040AF0EE408A0AE0B7EE000AD8
:10273000F4EEC08AF1EE10FA03D29FED4A0AF0EEF1
:10274000408A6078022816D1B1EE040AB4EEC08A3D
:10275000F1EE10FA03DDB1EE040AB0EE408AB9EEF4
:10276000040AB4EEC08AF1EE10FA29D2B9EE040AD6
:10277000B0EE408A24E06078042821D118EE100AD7
:10278000FDF7A4FF41EC190B9FED370B53EC102B19
:10279000FDF7C8FF03D2B2EE080AB0EE408A18EE89
:1027A000100AFDF793FF41EC190B9FED310B53EC31
:1027B000102BFDF79FFF03D2BAEE080AB0EE408A55
:1027C00000212046F0EE480AB0EE680AFFF7D6FD79
:1027D0006078022802D0607804283FD100BF60688A
:1027E000C08A0028FBD1606880ED048A6068C0ED73
:1027F000038A6068007D01280DD102206168087598
:102800006068406890ED000ABCEEC00A10EE100A45
:102810006168088110E06068007D02280CD1012009
:10282000616808756068006890ED000ABCEEC00A37
:1028300010EE100A6168088100206168C882607823
:10284000022804D184ED058AC4ED048A06E060788C
:10285000042803D184ED088AC4ED078ABDEC048BFB
:1028600010BD000000000000000000000000284033
:1028700000000000000028C010B52DED048B0446B8
:10288000B0EE408A6078032802D06078052824D111
:1028900018EE100AFDF71AFF41EC190B9FED100B13
:1028A00053EC102BFDF73EFF04D2B2EE080AB0EE57
:1028B000408A10E018EE100AFDF708FF41EC190BF2
:1028C0009FED090B53EC102BFDF714FF03D2BAEE6A
:1028D000080AB0EE408A84ED068ABDEC048B10BD78
:1028E000000000000000284000000000000028C098
:1028F00010B504466078032802D06078052805D119
:102900009FED090A2046FFF7B7FF0CE06078042826
:1029100009D16068D0ED030AB0EE600A2046DFED11
:10292000020AFFF7EFFE10BD000000001FB50121F5
:10293000084606F085FD01A808F0F2FB4AF21040B7
:10294000029001A9800608F0A9FB2021480608F0A2
:102950006EFB1C208DF8000001208DF80300002084
:102960008DF801008DF80200684603F0FDFD01229C
:102970001146900708F052FB0121880708F0C4FABD
:102980001FBD00002DE9F0412DED108B88B00446ED
:10299000F0EE408A607801280BD06078022808D0D9
:1029A0006078032805D06078042802D06078062873
:1029B0007DD1B1EE040A38EE800AF2EE040A20EE70
:1029C000208AB5EEC08AF1EE10FA05DDBCEEC80A29
:1029D00010EE100AC5B206E0B1EE480ABCEEC00A1D
:1029E00010EE100AC5B2632D00DD6325681CC7B266
:1029F0002846FDF75EFE41EC1E0B9FED630B53EC8A
:102A0000102BFDF764FD9FED620B53EC102BCDE90D
:102A100000019DED000B51EC100BFDF752FDCDE9CF
:102A2000020118EE900AFDF751FE41EC1D0B9DEDE1
:102A3000020B53EC102BFDF744FDCDE90401564881
:102A400000EB870090ED000A534800EB8500D0EDC5
:102A5000000A30EE600A10EE101A0846FDF736FE46
:102A600041EC1C0B9DED040B53EC102BFDF72FFDDF
:102A700041EC1B0B9FED440B53EC102BFDF799FD24
:102A800041EC1A0B444800EB850090ED000A10EE73
:102A9000101A0846FDF71AFE53EC1A2BCDE9060171
:102AA0009DED060B51EC100BFDF76AFC00E065E0B4
:102AB00041EC190BFDF74EFE08EE100A18EE100A55
:102AC000FDF704FE41EC190B9FED340B53EC102B7A
:102AD000FDF728FE04D2B1EE0E0AB0EE408A10E0F7
:102AE00018EE100AFDF7F2FD41EC190B9FED2D0BCE
:102AF00053EC102BFDF7FEFD03D29FED2C0AB0EE38
:102B0000408AB1EE480ADFED2A0A20EE200AF3EEF1
:102B1000000A80EE201A9FED270A31EE000A10EE1F
:102B2000108A4046FDF7D2FD41EC1A0B9FED220BB7
:102B300053EC102BFDF724FC41EC190BFDF70AFEBA
:102B40000FEE100A9FED1E0A2FEE000ADFED180AA5
:102B500080EE201ABCEEC10A10EE100A86B2207870
:102B6000012804D131460020FEF792FF06E02078CC
:102B7000022803D131460020FEF79AFF08B0BDECD1
:102B8000108BBDE8F08100009A9999999999B93F05
:102B90000000000000001440580801080000000078
:102BA00000001E40CDCCCCCCCCCC18C06666C6C0D4
:102BB000333353403333D33F47E17A14AEC7D53F65
:102BC00000F07F4510B504466078012802D0607897
:102BD000052805D19FED090A2046FFF731FD0CE0DD
:102BE0006078022809D16068D0ED030AB0EE600A6F
:102BF0002046DFED020AFFF785FD10BD0000000052
:102C000030E000F0DBFC184800F0A4FC174800F0AE
:102C1000A1FC14200CF08CFA15480078012803D18F
:102C20001148407805280FD011480078022803D1B8
:102C30000E484078052807D00D480078032803D0B7
:102C40000B48007804280DD100235A1E1946094864
:102C500000680CF0E5FE012804D102210648006856
:102C60000CF0B8FCCDE7000030010020600100202E
:102C7000D0010020580000205400002038B50A2060
:102C80000BF064F80024032003F028FB48B1002077
:102C900000906B4604220A4801680A480DF0C2FD04
:102CA0000446012000F028F94CB1009838B14FF0EB
:102CB000805005490860BFF34F8FBFF36F8F38BD59
:102CC00050000020DDED000804ED00E038B50A20DA
:102CD0000BF03CF80024042003F000FB48B1002076
:102CE00000906B4608220A4801680A480DF09AFDD8
:102CF0000446022000F000F94CB1009838B14FF0C2
:102D0000805005490860BFF34F8FBFF36F8F38BD08
:102D100050000020DDED000804ED00E038B50A2089
:102D20000BF014F80024012003F0D8FA48B1002079
:102D300000906B4601220A4801680A480DF072FDB6
:102D40000446102000F0D8F84CB1009838B14FF08C
:102D5000805005490860BFF34F8FBFF36F8F38BDB8
:102D600050000020DDED000804ED00E038B5202023
:102D700000F0C8F800B30A200AF0E8FF002402209F
:102D800003F0ACFA48B1002000906B46022257488D
:102D9000016857480DF046FD0446202000F0ACF8CD
:102DA0004CB1009838B14FF0805052490860BFF3E1
:102DB0004F8FBFF36F8F97E0402000F0A3F800B370
:102DC0000A200AF0C3FF0024052003F087FA48B167
:102DD000002000906B4610224448016844480DF0E2
:102DE00021FD0446402000F087F84CB1009838B12E
:102DF0004FF080503F490860BFF34F8FBFF36F8F94
:102E000072E0802000F07EF800B30A200AF09EFFF6
:102E10000024062003F062FA48B1002000906B46BF
:102E200020223248016832480DF0FCFC0446802024
:102E300000F062F84CB1009838B14FF080502D4945
:102E40000860BFF34F8FBFF36F8F4DE04FF480707A
:102E500000F058F808B30A200AF078FF0024072091
:102E600003F03CFA48B1002000906B4640221F4816
:102E700001681F480DF0D6FC04464FF4807000F046
:102E80003BF84CB1009838B14FF0805019490860B8
:102E9000BFF34F8FBFF36F8F26E04FF4007000F049
:102EA00031F808B30A200AF051FF0024082003F08B
:102EB00015FA48B1002000906B4680220B4801684B
:102EC0000B480DF0AFFC04464FF4007000F014F80E
:102ED0004CB1009838B14FF0805006490860BFF3FC
:102EE0004F8FBFF36F8F00BF38BD00005000002030
:102EF000DDED000804ED00E00149086070470000C6
:102F0000143C014001460020034A12680A400AB1FD
:102F1000012000E000207047143C014000212349BB
:102F20008279002A3AD00A46126803689A430B460F
:102F30001A600A1D126803689A430B1D1A60027911
:102F400011440A6803681A430A60184A0832126872
:102F500003689A43154B08331A601A1D12680368F8
:102F60009A43124B0C331A604279102A0ED11A1F61
:102F7000126803681A430D4B08331A601A1D126851
:102F800003681A43094B0C331A600DE00749427974
:102F900011440A6803681A430A6005E00279114483
:102FA0000A6803689A430A6070470000003C0140C9
:102FB00070B50446002537E06D1C2246002146F21C
:102FC000410006F0D1FA1A48007801280FD11848BC
:102FD000807841280AD11648C078602806D1144864
:102FE000407900F06F00272802D11FE01CE01BE0B1
:102FF000234602220021062008F008FC05200AF0E2
:10300000A5FE234602220021072008F0FFFB052031
:103010000AF09CFE2346022200210F2008F0F6FB56
:103020001E200AF093FE00BFFF2DC5DB00BF70BD60
:103030008402002000B589B00121052006F0F0F9D6
:1030400002208DF820000120079000208DF8230039
:1030500003208DF8210007A92D4800F0F5F9022280
:1030600000212B4800F038FA0220079007A92848D1
:1030700000F0EAF902220121254800F02DFA022091
:10308000079003208DF8200007A9224800F0DCF902
:103090000120079000208DF8200007A91D4800F0AE
:1030A000D3F90121082006F0CBF904A808F038F87C
:1030B0004FF6FF70059004A9174807F0EFFF01A82D
:1030C00007F0A3FF0020ADF804000520ADF80C00C8
:1030D0000020ADF80A000120ADF8080001A90E4853
:1030E00007F05CFF0420ADF8040001A90A4807F0CE
:1030F00055FF00231A460321074807F011FF01215D
:10310000054807F001FF01200449487009B000BDDF
:103110000000024000080240000C00409001002026
:1031200000B589B00121052006F07AF902208DF85A
:1031300020004020079000208DF8230003208DF808
:10314000210007A92D4800F07FF9022206212B4813
:1031500000F0C2F98020079007A9284800F074F910
:1031600002220721254800F0B7F908200790032024
:103170008DF8200007A9224800F066F90420079086
:1031800000208DF8200007A91D4800F05DF90121FD
:10319000022006F055F904A807F0C2FF4FF6FF70B1
:1031A000059004A9174807F079FF01A807F02DFF43
:1031B0000020ADF804000520ADF80C000020ADF8AB
:1031C0000A000120ADF8080001A90E4807F0E6FE4C
:1031D0000420ADF8040001A90A4807F0DFFE00232F
:1031E0001A460321074807F09BFE0121054807F016
:1031F0008BFE01200449487009B000BD0000024068
:1032000000080240000400409A01002000B599B077
:103210000121080206F024F900201790159016905D
:10322000189015A8FDF71EFC00208DF841001390A2
:10323000119037484078374949780844C0B28DF832
:1032400050004FF000700F9001208DF840000FA942
:103250003148FDF72BFC2E48407878B1002301223D
:103260000B212D48FDF74CFC2A48407878B100230B
:1032700002220D212848FDF743FC08E0254840784C
:1032800028B1002301220D212348FDF739FC01213B
:10329000880506F0C5F81E4840781E49497808445C
:1032A00004900020009003900B9001200C9018488F
:1032B000407810B11948029002E01848801C029032
:1032C00000200D904FF400500890C0100690801020
:1032D000099011484C30019000200E904FF400608E
:1032E0000790002005904FF400300A9069460C4882
:1032F000FEF756FC01210A48FEF746FC012106486C
:10330000FDF7C8FB01210448FDF7A1FB19B000BD82
:10331000900100209A01002000200140A40100201B
:103320001064024010B5FFF785FEFFF7F9FEFFF7C6
:103330006DFF10BD2DED028B00241EE04FF0FF311C
:1033400001200BF0EFFC00F039F90C48B0F9060051
:1033500000EE100AB8EEC00ADFED090A80EE201A6E
:10336000B0EE418AB0EE480A00F018F8641C142C44
:1033700002D1FEF73BF9002400BFDFE79A010020ED
:1033800000007A4410B50446002302221946024880
:1033900000680CF04FFE10BD48000020094800688E
:1033A000401C08490860B0F5806F01DB0020086010
:1033B000054800680349096800EB810080ED000AB8
:1033C00070470000F0010020E801002010B54FF424
:1033D00082500AF007FD104908604FF482500AF04D
:1033E00001FD0E4908600C48006830B14FF480516F
:1033F00009480068FCF7B9FF01E000BFFEE7074895
:10340000006830B14FF4805104480068FCF7ADFF0C
:1034100001E000BFFEE710BDE8010020EC01002044
:10342000B0EE401A9FED072AF0EE421A21EE812AF3
:10343000F7EE002A72EEE12A02EEA02AB0EE420A6E
:10344000704700003333333FF0B50A4600210023B4
:10345000002400BF3DE0012505FA01F3156805EAE7
:1034600003049C4234D105684F000326BE40B54397
:10347000056015794E00B54006683543056015793D
:10348000012D02D01579022D16D185684F00032633
:10349000BE40B543856055794E00B54086683543DA
:1034A0008560456801268E40B5434560456896793C
:1034B0008E40B6B235434560C5684F000326BE4016
:1034C000B543C560D5794E00B540C6683543C56083
:1034D000491C1029BFD3F0BDF0B5002300244D07CF
:1034E000ED0E02FA05F3CE1000F1200555F8265036
:1034F0004E07F70E0F26BE40B543CF1000F1200651
:1035000046F82750CE1000F1200555F8265045EA20
:103510000304CE1000F1200545F82640F0BD024618
:10352000002013690B400BB1012000E00020704720
:103530000246002053690B400BB1012000E000203F
:10354000704741837047018370470AB1018300E0EF
:103550004183704770B504462078012810D1607807
:1035600003280DD1114807F0FCFC1149C884084616
:10357000C08C05B2084690F8240010FB05F0886264
:103580002078022810D1607803280DD1094807F06F
:10359000E8FC0949C8840846C08C05B2084690F882
:1035A000240010FB05F0886270BD0000000001409F
:1035B00030010020000800406001002010B51148D3
:1035C000407868B1104807F0CCFC0E498880084666
:1035D000808804B20846007A10FB04F000B2C8806C
:1035E0000A48407868B10A4807F0BBFC0749888060
:1035F0000846808804B20846007A10FB04F000B246
:10360000C88010BD90010020000C00409A010020ED
:103610000004004000BFFEE710B54FF4006102480F
:10362000FFF77DFF10BD00000004024010B5044606
:103630002CB14FF400610548FFF785FF04E04FF41B
:1036400000610248FFF77DFF10BD0000000402404A
:1036500070B50446002519E0E009FFF7E7FF6006B2
:10366000040E02200AF07FFB4FF480610E48FFF742
:103670006AFF02200AF077FB4FF480610A48FFF7E7
:1036800060FF02200AF06FFB681CC5B2082DE3DB67
:103690004FF480610448FFF754FF4FF40061024883
:1036A000FFF751FF70BD0000000402401CB501216E
:1036B000022005F0B5FE01208DF804008DF806000B
:1036C0008002009000208DF8070003208DF805008F
:1036D00069460548FFF7B8FE4FF400600090694660
:1036E0000148FFF7B1FE1CBD0004024010B54FF4C5
:1036F00000610F48FFF727FF4FF480610C48FFF788
:1037000022FF04200AF02FFB4FF400610848FFF766
:1037100018FF04200AF027FB4FF480610448FFF7EC
:1037200010FF4FF400610248FFF70DFF10BD0000CD
:103730000004024010B54FF400610F48FFF701FF8D
:103740004FF480610C48FFF7FEFE04200AF00BFBEB
:103750004FF400610848FFF7F6FE04200AF003FB6F
:103760004FF480610448FFF7ECFE4FF4006102481B
:10377000FFF7E9FE10BD00000004024010B5002470
:103780004FF400611148FFF7DEFE4FF480610F48EF
:10379000FFF7D9FE01200AF0E6FA0CE0601CC4B283
:1037A000FA2C08DD4FF480610848FFF7CAFEFFF7E6
:1037B000C1FF012010BDFFF72FFF0028EED14FF40D
:1037C00080610248FFF7BDFE0020F3E700040240DD
:1037D00010B54FF4407002F003FF10BD08B564E06F
:1037E0004FF0FF3000230122FF2100902F48006896
:1037F0000BF066FF044600235A1E19462C48006849
:103800000CF00EF901284FD104F0010030B100F0A6
:1038100053F80721274800680BF0DCFE04F0020093
:1038200030B100F093F80721224800680BF0D2FE77
:1038300004F0040030B100F0FFF904211D480068D5
:103840000BF0C8FE04F0080030B100F023FC0621A4
:10385000184800680BF0BEFE04F0100030B100F014
:10386000F9FC0621134800680BF0B4FE04F02000B8
:1038700030B101F0DBF806210E4800680BF0AAFE1B
:1038800004F0400030B101F0BDFC06210948006899
:103890000BF0A0FE04F0800030B102F099F8062190
:1038A000044800680BF096FE00BF99E75000002026
:1038B00058000020540000200020214908702148B1
:1038C000007818B901201F4908702AE01D480078C7
:1038D000052803DA05201B49087022E01948007802
:1038E000092803DA0920174908701AE015480078FA
:1038F0000B2803DA0B201349087012E011480078F6
:103900000D2803DA0D200F4908700AE00D480078F1
:103910000F2803DA0F200B49087002E00020094944
:10392000087000200849087006480078032803D072
:1039300004480078042802D101200149087070472A
:10394000D1010020D0010020D201002010B5AF48E5
:103950000078012860D1AE48407806285BD2DFE8C5
:1039600000F05A030D2C394DA94805F033FEA84844
:10397000FEF762FE0020A74908704CE0A548407998
:1039800000F00200A44908600846006848B101211F
:103990000320FDF711F99F48407920F002009D496E
:1039A00048719E4805F0FCFC0320994948700020AE
:1039B0004968C882974908702DE0954805F098FE3F
:1039C000964805F0EDFC042091494870002091498B
:1039D000087020E09048006848B101210020FDF700
:1039E000EBF88C48407940F002008A4948718848D9
:1039F000FEF77EFA0020874908700CE00120844918
:103A000048700846D0ED030AB0EE600AFEF7BAFF30
:103A1000002080490870F8E07C480078022860D1D6
:103A20007F48407806285BD2DFE800F05A030D2C6F
:103A3000394D7B4805F0CEFD7948FEF7FDFD0020AD
:103A4000744908704CE07348407900F001007549F2
:103A500008600846006848B102210320FDF7ACF871
:103A60006C48407920F001006A4948716E4805F0C1
:103A700059FB03206A49487000204968C88265499B
:103A800008702DE0664805F033FE674805F04AFBF4
:103A900004206349487000205E49087020E06148B6
:103AA000006848B102210020FDF786F859484079A6
:103AB00040F00100574948715948FEF719FA0020B3
:103AC000544908700CE00120554948700846D0ED73
:103AD000030AB0EE600AFEF755FF00204D4908705A
:103AE00093E04A48007806280FD150480078012812
:103AF00002D0022808D103E002204C49087003E0FC
:103B000001204A49087000BF7FE04048007809283A
:103B100003D03E4800780A280ED14548007810B1FD
:103B2000012808D103E001204149087003E000208A
:103B30003F49087000BF68E0344800780B2803D084
:103B4000324800780C280ED13A48007810B101288C
:103B500008D103E001203749087003E0002035490F
:103B6000087000BF51E0294800780D2803D027488D
:103B700000780E2820D12648C06A007D10B10128A7
:103B800019D10DE001202249C96A0875204805F0C5
:103B90005CFD00201F49087006201D4948700AE09E
:103BA00000201B49C96A0875012019494870084658
:103BB000FFF708F800BF28E0144800780F2803D06A
:103BC00012480078102820D11548C06A007D10B135
:103BD000012819D10DE001201149C96A0875104862
:103BE00005F033FD00200B49087006200C49487091
:103BF0000AE000200A49C96A08750120084948708E
:103C00000846FEF7DFFF00BF00BF10BDD001002057
:103C100030010020D2010020DC010020500C0120E6
:103C200060010020E0010020A80C0120A400002079
:103C3000A8000020BC00002010B5F748007801283B
:103C400042D1F648407801280BD0F4484078022849
:103C500007D0F2484078032803D0F0484078042881
:103C600005D1EF48007818B90120ED4908700AE243
:103C7000EB480078012817D1E8484078012803D0A4
:103C8000E6484078032803D10020E5490870FAE1AE
:103C9000E2484078022803D0E04840780428E6D182
:103CA0000220DF490870EEE1DD4800780228DED10D
:103CB000DA484078022803D0D84840780428D6D182
:103CC0000020D7490870DEE1D3480078022841D1AE
:103CD000D448407801280BD0D2484078022807D039
:103CE000D0484078032803D0CE4840780428BED17D
:103CF000CB48007818B90120C9490870C3E1C84809
:103D00000078012816D1C7484078012803D0C5485B
:103D10004078032802D10020C1490870C14840788A
:103D2000022803D0BF4840780428A0D10220BC4913
:103D30000870A8E1BA480078022898D1B9484078BC
:103D4000022803D0B7484078042890D10020B44915
:103D5000087098E1B048007805280DD1B048407847
:103D6000042803D10020AE4948708CE1AC4840786B
:103D7000401CAB49487086E1A748007806284CD122
:103D8000A9480078012829D1A548007900F002004F
:103D9000D0B90120FDF730FE0120FFF709F9A04856
:103DA000407900F0020020B901210320FCF704FF54
:103DB00003E001210020FCF7FFFE9948007940F064
:103DC0000200974908715EE10120FDF717FF944852
:103DD000007900F0FD009249087154E192480078A2
:103DE00002288BD18E48407900F0020050B90121A1
:103DF0000020FCF7E1FE8A48407940F00200884943
:103E0000487140E101210320FCF7D6FE8448407947
:103E100000F0FD008249487135E17F4800780928AB
:103E200012D17F48007818B901207D4908702AE135
:103E30007B480078012803D102207949087022E1EB
:103E40000020774908701EE1734800780A2822D1C3
:103E50007348807818B901207149887013E170485F
:103E60008078012803D102206D4988700BE16C48ED
:103E70008078022803D103206949887003E16848EB
:103E80008078032803D1042065498870FBE0002076
:103E900063498870F7E0604800780B2812D16048C9
:103EA000007818B901205E490870ECE05C480078A1
:103EB000012803D102205A490870E4E00020584943
:103EC0000870E0E0544800780C2822D15448C078AB
:103ED00018B901205249C870D5E05148C07801286E
:103EE00003D102204E49C870CDE04D48C078022869
:103EF00003D103204A49C870C5E04948C078032867
:103F000003D104204649C870BDE000204449C87070
:103F1000B9E0414800780D2839D14148007858B9B6
:103F200000203E49C96A087501203D49087002F029
:103F3000FBFC03F0FBFEA6E039480078012803D122
:103F40000220374908709EE035480078022803D1E6
:103F500003203349087096E031480078032803D1E4
:103F600004202F4908708EE000202D4908702B484E
:103F7000407806280AD101202849C96A08752748CF
:103F800005F063FB02F0D0FC03F0D0FE7BE022489A
:103F900000780E2814D122488079012803D102200C
:103FA0001F49887106E01E488079022802D101204D
:103FB0001B4988711A4880791849C96A487562E0B6
:103FC000154800780F2844D11548007858B90020CA
:103FD0001449C96A087501201149087002F0A4FC4F
:103FE00003F0A4FE4FE00E480078012803D1022020
:103FF0000B49087047E00A480078022803D10320E3
:10400000074908703FE00648007803280ED10420D5
:104010000349087037E00000D00100203001002083
:10402000D201002060010020A400002000201649D9
:10403000087016484078062825D101201349C96A1E
:104040000875124805F001FB02F06EFC03F06EFEED
:1040500019E00F480078102815D10B48C0790128C5
:1040600003D102200849C87106E00748C079022838
:1040700002D101200449C8710348C0790349C96AC3
:10408000487502F047FE10BDD201002060010020FB
:10409000D001002010B567480078072871D2DFE80A
:1040A00000F0C60424444E58790063484078012843
:1040B00003D061484078022803D15F48FEF782FDB3
:1040C00012E05D484078032803D05B48407804281C
:1040D00003D15948FEF70CFC06E057484078052804
:1040E00002D15548FDF740FCA2E054484078012831
:1040F00003D052484078022803D15048FEF762FDB1
:1041000012E04E484078032803D04C4840780428F9
:1041100003D14A48FEF7ECFB06E048484078052802
:1041200002D14648FDF720FC82E000204449087097
:104130004448FDF73FFC01204149087078E0002029
:104140003F4908704048FDF735FC01203C490870A4
:104150006EE03E484078012803D13748FDF704FC63
:1041600017E03A484078022803D13448FDF7FCFBB9
:104170000FE036484078032804D13248FDF71AFC96
:1041800007E054E031484078042802D12E48FDF77A
:1041900011FC4DE02E480078012829D12B480079E8
:1041A00000F00100D0B90220FDF726FC0220FEF746
:1041B000FFFE2648407900F0010020B902210320CB
:1041C000FCF7FAFC03E002210020FCF7F5FC1F4895
:1041D000007940F001001D49087127E00220FDF739
:1041E0000DFD1A48007900F0FE00184908711DE025
:1041F00017480078022819D11448407900F00100CE
:1042000050B902210020FCF7D7FC1048407940F05B
:1042100001000E49487109E002210320FCF7CCFCA3
:104220000A48407900F0FE000849487100E000BFEC
:1042300000BF10BDD001002030010020600100202F
:10424000D1010020900100209A010020D20100201D
:10425000A400002010B52DED068BFE480078012843
:1042600019D1FD484078012815D1FC480078012873
:1042700011D1F948D0ED030AFDEEE00A10EE900AE4
:10428000401C00EE900AF8EEE00AB0EE600AF24838
:10429000FEF7D6F9BDE3EF48007801281DD1EE48BE
:1042A0004078022819D1ED480078022815D1EA4853
:1042B00090ED051AF0EE410A90ED041ABDEEC11A18
:1042C00011EE100A401C01EE100AB8EEC11AB0EE51
:1042D000410AE148FEF716FA9BE3DE480078012820
:1042E0001DD1DD484078022819D1DC48007801282A
:1042F00015D1D94890ED051ABDEEC11A11EE100A7C
:10430000401C01EE100AB8EEC11AF0EE410AD24884
:1043100090ED041AB0EE410AFEF7F4F979E3CD48C6
:104320000078012819D1CC484078032815D1CB4812
:104330000078012811D1C848D0ED060AFDEEE00A48
:1043400010EE900A401C00EE900AF8EEE00AB0EE83
:10435000600AC148FEF790FA5BE3BE480078012886
:104360001DD1BD484078042819D1BC4800780228E6
:1043700015D1B94890ED081AF0EE410A90ED071AF0
:10438000BDEEC11A11EE100A401C01EE100AB8EE83
:10439000C11AB0EE410AB048FEF7B4F939E3AD48AE
:1043A000007801281DD1AC484078042819D1AB48C9
:1043B0000078012815D1A84890ED081ABDEEC11A61
:1043C00011EE100A401C01EE100AB8EEC11AF0EE10
:1043D000410AA14890ED071AB0EE410AFEF792F9A2
:1043E00017E39C480078022819D19D48407801289D
:1043F00015D19A480078012811D19948D0ED030AC7
:10440000FDEEE00A10EE900A401C00EE900AF8EE75
:10441000E00AB0EE600A9248FEF712F9F9E28D4820
:10442000007802281DD18E484078022819D18B4887
:104430000078022815D18A4890ED051AF0EE410A5D
:1044400090ED041ABDEEC11A11EE100A401C01EEE7
:10445000100AB8EEC11AB0EE410A8148FEF752F9CF
:10446000D7E27C48007802281DD17D484078022898
:1044700019D17A480078012815D1794890ED051AAC
:10448000BDEEC11A11EE100A401C01EE100AB8EE82
:10449000C11AF0EE410A724890ED041AB0EE410ADA
:1044A000FEF730F9B5E26B480078022819D16C4864
:1044B0004078032815D169480078012811D168484F
:1044C000D0ED060AFDEEE00A10EE900A401C00EE68
:1044D000900AF8EEE00AB0EE600A6148FEF7CCF907
:1044E00097E25C48007802281DD15D484078042896
:1044F00019D15A480078022815D1594890ED081A68
:10450000F0EE410A90ED071ABDEEC11A11EE100A45
:10451000401C01EE100AB8EEC11AB0EE410A504834
:10452000FEF7F0F875E24B48007802281DD14C48A0
:104530004078042819D149480078012815D1484805
:1045400090ED081ABDEEC11A11EE100A401C01EEE2
:10455000100AB8EEC11AF0EE410A414890ED071A70
:10456000B0EE410AFEF7CEF853E23A480078092847
:1045700010D13A48007801280CD13A48018AD0ED90
:10458000030AB2EE041A70EE810AB0EE600AFDF77B
:1045900027F93EE22F48007809280FD12F480078EC
:1045A00002280BD12F48008A0A3081B22D48D0ED65
:1045B000030AB0EE600AFDF713F92AE225480078F5
:1045C0000B2810D12548007801280CD12648018AF3
:1045D000D0ED030AB2EE041A70EE810AB0EE600A62
:1045E000FDF7FEF815E21B4800780B280FD11B4899
:1045F000007802280BD11C48008A0A3081B21A4880
:10460000D0ED030AB0EE600AFDF7EAF801E21148C6
:1046100000780D2841D11148007801283DD10E497C
:10462000C96A91ED020ABDEEC00A10EE100AFCF74D
:104630002FF841EC1A0B9FED0D0B53EC102BFBF7F1
:104640009FFE41EC190BFCF785F808EE100A0248B2
:10465000C06A0FE0D001002030010020D20100200C
:1046600060010020A8000020BC0000200000000025
:104670000000F03FC168E848C06A90ED010AB0EE62
:10468000401AE548C06A90ED000AF0EE400AB0EE2C
:10469000480AE148FDF7CCF8BBE1E04800780D2876
:1046A0002FD1DF48007802282BD1DB48C06A90ED7B
:1046B000000A10EE101A0846FCF708F841EC1A0B35
:1046C0001FED160B53EC102BFBF75AFE41EC190BA8
:1046D000FCF740F808EE100ACF48C06AC168CE481F
:1046E000C06AD0ED010AB0EE601ACB48C06AD0EDC6
:1046F000020AB0EE600AF0EE480AC748FDF798F8E3
:1047000087E1C64800780D282FD1C54800780328D6
:104710002BD1C148C06A90ED010A10EE101A08466C
:10472000FBF7D4FF41EC1A0B1FED300B53EC102BB1
:10473000FBF726FE41EC190BFCF70CF808EE100A0B
:10474000B548C06AC168B448C06A90ED001AF0EE7E
:10475000410AB148C06A90ED021AB0EE410AB0EECB
:10476000481AAD48FDF764F853E1AC4800780D28CD
:104770001ED1AB48007804281AD1A748C06AC06887
:1047800000F16401A448C06AD0ED011AB0EE611ACC
:10479000A148C06AD0ED001AF0EE610A9E48C06AD6
:1047A000D0ED021AB0EE610A9B48FDF741F830E106
:1047B0009A4800780F2830D19948007801282CD1E8
:1047C0009849C96A91ED020ABCEEC00A10EE100ABF
:1047D000FBF76FFF41EC1A0B1FED5C0B53EC102B3A
:1047E000FBF7CEFD41EC190BFBF7B4FF08EE100A06
:1047F0008C48C06AC1688B48C06A90ED010AB0EE6F
:10480000401A8848C06A90ED000AF0EE400AB0EE07
:10481000480A8448FDF70CF8FBE0804800780F2830
:104820002FD17F48007802282BD17E48C06A90EDB6
:10483000000A10EE101A0846FBF748FF41EC1A0B6D
:104840001FED760B53EC102BFBF79AFD41EC190B87
:10485000FBF780FF08EE100A7248C06AC168714811
:10486000C06AD0ED010AB0EE601A6E48C06AD0EDA1
:10487000020AB0EE600AF0EE480A6A48FCF7D8FF78
:10488000C7E0664800780F282FD1654800780328D4
:104890002BD16448C06A90ED010A10EE101A084648
:1048A000FBF714FF41EC1A0B1FED900B53EC102B90
:1048B000FBF766FD41EC190BFBF74CFF08EE100A05
:1048C0005848C06AC1685748C06A90ED001AF0EEB7
:1048D000410A5448C06A90ED021AB0EE410AB0EEA7
:1048E000481A5048FCF7A4FF93E04C4800780F2882
:1048F0001ED14B48007804281AD14A48C06AC068C3
:1049000000F164014748C06AD0ED011AB0EE611AA7
:104910004448C06AD0ED001AF0EE610A4148C06A0E
:10492000D0ED021AB0EE610A3E48FCF781FF70E05C
:104930003A48007805280FDA3848007800280BDD5F
:10494000002039490870012034490870002034499A
:10495000087001F0E9FF5CE03048007804280FDDC2
:104960002E48007809280BDA00202F49087005200E
:104970002A49087000202A49087001F0D5FF48E054
:104980002648007808280FDD244800780B280BDA29
:10499000002025490870092020490870002020497E
:1049A000087001F0C1FF34E01C4800780A280FDDD0
:1049B0001A4800780D280BDA00201B4908700B20DC
:1049C0001649087000201649087001F0ADFF20E07C
:1049D000124800780C280CDD104800780F2808DAFF
:1049E0000D200E49087000200D49087001F09CFF51
:1049F0000FE00A4800780E280BDD084800781128DF
:104A000007DA0F200549087000200549087001F0F9
:104A10008BFFBDEC068B10BD30010020D0010020C3
:104A2000D201002060010020D101002010B52DED41
:104A3000068BFE480078012819D1FD4840780128EE
:104A400015D1FC480078012811D1F948D0ED030AAE
:104A5000FDEEE00A10EE900A401E00EE900AF8EE1D
:104A6000E00AB0EE600AF248FDF7EAFDBDE3EF4868
:104A7000007801281DD1EE484078022819D1ED4870
:104A80000078022815D1EA4890ED051AF0EE410AA7
:104A900090ED041ABDEEC11A11EE100A401E01EE8F
:104AA000100AB8EEC11AB0EE410AE148FDF72AFE3D
:104AB0009BE3DE48007801281DD1DD4840780228BC
:104AC00019D1DC480078012815D1D94890ED051A94
:104AD000BDEEC11A11EE100A401E01EE100AB8EE2A
:104AE000C11AF0EE410AD24890ED041AB0EE410A24
:104AF000FDF708FE79E3CD480078012819D1CC48AC
:104B00004078032815D1CB480078012811D1C84836
:104B1000D0ED060AFDEEE00A10EE900A401E00EE0F
:104B2000900AF8EEE00AB0EE600AC148FDF7A4FE74
:104B30005BE3BE48007801281DD1BD4840780428B9
:104B400019D1BC480078022815D1B94890ED081A4F
:104B5000F0EE410A90ED071ABDEEC11A11EE100AEF
:104B6000401E01EE100AB8EEC11AB0EE410AB0487C
:104B7000FDF7C8FD39E3AD48007801281DD1AC48E8
:104B80004078042819D1AB480078012815D1A848ED
:104B900090ED081ABDEEC11A11EE100A401E01EE8A
:104BA000100AB8EEC11AF0EE410AA14890ED071ABA
:104BB000B0EE410AFDF7A6FD17E39C4800780228F5
:104BC00019D19D484078012815D19A4800780128CC
:104BD00011D19948D0ED030AFDEEE00A10EE900ADB
:104BE000401E00EE900AF8EEE00AB0EE600A92482D
:104BF000FDF726FDF9E28D48007802281DD18E4888
:104C00004078022819D18B480078022815D18A48AB
:104C100090ED051AF0EE410A90ED041ABDEEC11AAE
:104C200011EE100A401E01EE100AB8EEC11AB0EEE5
:104C3000410A8148FDF766FDD7E27C4800780228EA
:104C40001DD17D484078022819D17A480078012882
:104C500015D1794890ED051ABDEEC11A11EE100A72
:104C6000401E01EE100AB8EEC11AF0EE410A724879
:104C700090ED041AB0EE410AFDF744FDB5E26B4831
:104C80000078022819D16C484078032815D169486A
:104C90000078012811D16848D0ED060AFDEEE00A3F
:104CA00010EE900A401E00EE900AF8EEE00AB0EE18
:104CB000600A6148FDF7E0FD97E25C480078022851
:104CC0001DD15D484078042819D15A48007802283F
:104CD00015D1594890ED081AF0EE410A90ED071AE7
:104CE000BDEEC11A11EE100A401E01EE100AB8EE18
:104CF000C11AB0EE410A5048FDF704FD75E24B4879
:104D0000007802281DD14C484078042819D1494820
:104D10000078012815D1484890ED081ABDEEC11A57
:104D200011EE100A401E01EE100AB8EEC11AF0EEA4
:104D3000410A414890ED071AB0EE410AFDF7E2FC46
:104D400053E23A480078092810D13A4800780128FF
:104D50000CD13A48018AD0ED030AB2EE041A70EE83
:104D6000C10AB0EE600AFCF73BFD3EE22F48007836
:104D700009280FD12F48007802280BD12F48008A2C
:104D80000A3881B22D48D0ED030AB0EE600AFCF774
:104D900027FD2AE2254800780B2810D12548007805
:104DA00001280CD12648018AD0ED030AB2EE041A7C
:104DB00070EEC10AB0EE600AFCF712FD15E21B4866
:104DC00000780B280FD11B48007802280BD11C4813
:104DD000008A0A3881B21A48D0ED030AB0EE600AA0
:104DE000FCF7FEFC01E2114800780D2841D1114882
:104DF000007801283DD10E49C96A91ED020ABCEE46
:104E0000C00A10EE100AFBF754FC41EC1A0B9FEDA0
:104E10000D0B53EC102BFBF754FB41EC190BFBF77C
:104E200099FC08EE100A0248C06A0FE0D001002089
:104E300030010020D201002060010020A8000020E5
:104E4000BC000020000000000000F03FC168E848FE
:104E5000C06A90ED010AB0EE401AE548C06A90EDD4
:104E6000000AF0EE400AB0EE480AE148FCF7E0FC28
:104E7000BBE1E04800780D282FD1DF4800780228F8
:104E80002BD1DB48C06A90ED000A10EE101A0846DC
:104E9000FBF71CFC41EC1A0B1FED160B53EC102B0F
:104EA000FBF70FFB41EC190BFBF754FC08EE100A63
:104EB000CF48C06AC168CE48C06AD0ED010AB0EEE2
:104EC000601ACB48C06AD0ED020AB0EE600AF0EE7C
:104ED000480AC748FCF7ACFC87E1C64800780D28B3
:104EE0002FD1C548007803282BD1C148C06A90ED66
:104EF000010A10EE101A0846FBF7E8FB41EC1A0B0A
:104F00001FED300B53EC102BFBF7DBFA41EC190BC8
:104F1000FBF720FC08EE100AB548C06AC168B44827
:104F2000C06A90ED001AF0EE410AB148C06A90EDF7
:104F3000021AB0EE410AB0EE481AAD48FCF778FC10
:104F400053E1AC4800780D281ED1AB480078042806
:104F50001AD1A748C06AC068A0F16401A448C06A19
:104F6000D0ED011AB0EE611AA148C06AD0ED001A66
:104F7000F0EE610A9E48C06AD0ED021AB0EE610AF6
:104F80009B48FCF755FC30E19A4800780F2830D157
:104F90009948007801282CD19849C96A91ED020AF4
:104FA000BCEEC00A10EE100AFBF783FB41EC1A0BB3
:104FB0001FED5C0B53EC102BFBF783FA41EC190B44
:104FC000FBF7C8FB08EE100A8C48C06AC1688B4822
:104FD000C06A90ED010AB0EE401A8848C06A90EDB0
:104FE000000AF0EE400AB0EE480A8448FCF720FCC4
:104FF000FBE0804800780F282FD17F4800780228F6
:105000002BD17E48C06A90ED000A10EE101A0846B7
:10501000FBF75CFB41EC1A0B1FED760B53EC102BEE
:10502000FBF74FFA41EC190BFBF794FB08EE100A63
:105030007248C06AC1687148C06AD0ED010AB0EE1A
:10504000601A6E48C06AD0ED020AB0EE600AF0EE57
:10505000480A6A48FCF7ECFBC7E0664800780F286E
:105060002FD16548007803282BD16448C06A90EDA1
:10507000010A10EE101A0846FBF728FB41EC1A0B48
:105080001FED900B53EC102BFBF71BFA41EC190BA7
:10509000FBF760FB08EE100A5848C06AC168574821
:1050A000C06A90ED001AF0EE410A5448C06A90EDD3
:1050B000021AB0EE410AB0EE481A5048FCF7B8FBAD
:1050C00093E04C4800780F281ED14B480078042804
:1050D0001AD14A48C06AC068A0F164014748C06A52
:1050E000D0ED011AB0EE611A4448C06AD0ED001A42
:1050F000F0EE610A4148C06AD0ED021AB0EE610AD2
:105100003E48FCF795FB70E03A48007805280FDA36
:105110003848007800280BDD00203949087002204B
:105120003449087000203449087001F0FDFB5CE050
:105130003048007804280FDD2E48007809280BDA63
:1051400000202F49087006202A49087000202A49AB
:10515000087001F0E9FB48E02648007808280FDDD8
:10516000244800780B280BDA0020254908700A2013
:105170002049087000202049087001F0D5FB34E078
:105180001C4800780A280FDD1A4800780D280BDA31
:1051900000201B4908700C20164908700020164991
:1051A000087001F0C1FB20E0124800780C280CDDEB
:1051B000104800780F2808DA0E200E4908700020E9
:1051C0000D49087001F0B0FB0FE00A4800780E2886
:1051D0000BDD08480078112807DA1020054908700F
:1051E00000200549087001F09FFBBDEC068B10BD47
:1051F00030010020D0010020D201002060010020F9
:10520000D101002010B52DED028BFE480078012859
:1052100021D1FD48407801281DD1FC4800780128A3
:1052200019D1F94890ED030AF2EE040A20EE200AA3
:10523000BDEEC00AB8EEC00AF7EE000A30EE200A52
:10524000F2EE040A80EE201AB0EE418AB0EE480A6F
:10525000FDF7F6F9ABE3EB480078012825D1EA48E1
:105260004078022821D1E948007802281DD1E6487B
:1052700090ED040AF2EE040A20EE200ABDEEC00A08
:10528000B8EEC00AF7EE000A30EE200AF2EE040A89
:1052900080EE201AB0EE418A90ED050AF0EE400A49
:1052A000B0EE480AFDF72EFA81E3D64800780128CF
:1052B00025D1D5484078022821D1D448007801284A
:1052C0001DD1D14890ED050AF2EE040A20EE200A25
:1052D000BDEEC00AB8EEC00AF7EE000A30EE200AB2
:1052E000F2EE040A80EE201AB0EE418AD0ED040AF4
:1052F000B0EE600AF0EE480AFDF704FA57E3C14841
:105300000078012821D1C048407803281DD1BF482A
:105310000078012819D1BC4890ED060AF2EE040A83
:1053200020EE200ABDEEC00AB8EEC00AF7EE000A71
:1053300030EE200AF2EE040A80EE201AB0EE418A26
:10534000B0EE480AFDF798FA31E3AE48007801283C
:1053500025D1AD484078042821D1AC4800780228F6
:105360001DD1A94890ED070AF2EE040A20EE200AAA
:10537000BDEEC00AB8EEC00AF7EE000A30EE200A11
:10538000F2EE040A80EE201AB0EE418A90ED080A8F
:10539000F0EE400AB0EE480AFDF7B4F907E3994889
:1053A0000078012825D198484078042821D19748D1
:1053B000007801281DD1944890ED080AF2EE040A05
:1053C00020EE200ABDEEC00AB8EEC00AF7EE000AD1
:1053D00030EE200AF2EE040A80EE201AB0EE418A86
:1053E000D0ED070AB0EE600AF0EE480AFDF78AF940
:1053F000DDE284480078022821D1854840780128E0
:105400001DD182480078012819D1814890ED030A06
:10541000F2EE040A20EE200ABDEEC00AB8EEC00A81
:10542000F7EE000A30EE200AF2EE040A80EE201AAF
:10543000B0EE418AB0EE480AFDF702F9B7E27148D2
:105440000078022825D172484078022821D16F487F
:10545000007802281DD16E4890ED040AF2EE040A8D
:1054600020EE200ABDEEC00AB8EEC00AF7EE000A30
:1054700030EE200AF2EE040A80EE201AB0EE418AE5
:1054800090ED050AF0EE400AB0EE480AFDF73AF951
:105490008DE25C480078022825D15D4840780228DA
:1054A00021D15A48007801281DD1594890ED050AAC
:1054B000F2EE040A20EE200ABDEEC00AB8EEC00AE1
:1054C000F7EE000A30EE200AF2EE040A80EE201A0F
:1054D000B0EE418AD0ED040AB0EE600AF0EE480A60
:1054E000FDF710F963E247480078022821D14848C7
:1054F000407803281DD145480078012819D1444837
:1055000090ED060AF2EE040A20EE200ABDEEC00A73
:10551000B8EEC00AF7EE000A30EE200AF2EE040AF6
:1055200080EE201AB0EE418AB0EE480AFDF7A4F9E9
:105530003DE234480078022825D1354840780428D7
:1055400021D13248007802281DD1314890ED070A58
:10555000F2EE040A20EE200ABDEEC00AB8EEC00A40
:10556000F7EE000A30EE200AF2EE040A80EE201A6E
:10557000B0EE418A90ED080AF0EE400AB0EE480A1B
:10558000FDF7C0F813E21F480078022825D1204813
:105590004078042821D11D48007801281DD11C48DD
:1055A00090ED080AF2EE040A20EE200ABDEEC00AD1
:1055B000B8EEC00AF7EE000A30EE200AF2EE040A56
:1055C00080EE201AB0EE418AD0ED070AB0EE600AF4
:1055D000F0EE480AFDF796F8E9E10A480078092854
:1055E0001AD10A480078012816D10A48018AD0ED5C
:1055F000030AB7EE001A70EE810AB0EE600AFCF7FB
:10560000EFF8D4E1D001002030010020D2010020C9
:1056100060010020A8000020E648007809280FD18A
:10562000E548007802280BD1E448008A401C81B28A
:10563000E248D0ED030AB0EE600AFCF7D1F8B6E11B
:10564000DC4800780B2810D1DB48007801280CD109
:10565000DB48018AD0ED030AB7EE001A70EE810A2A
:10566000B0EE600AFCF7BCF8A1E1D24800780B2844
:105670000FD1D148007802280BD1D148008A401CB4
:1056800081B2CF48D0ED030AB0EE600AFCF7A8F86B
:105690008DE1C84800780D282ED1C7480078012830
:1056A0002AD1C848C06A90ED020AF2EE040A20EE40
:1056B000200ABDEEC00AB8EEC00AF7EE000A30EECE
:1056C000200AF2EE040A80EE201AB0EE418ABD48AC
:1056D000C06AC168BB48C06A90ED010AB0EE401ACA
:1056E000B848C06A90ED000AF0EE400AB0EE480AF1
:1056F000B448FCF79DF85AE1AE4800780D282ED149
:10570000AD48007802282AD1AE48C06A90ED000A60
:10571000F2EE040A20EE200ABDEEC00AB8EEC00A7E
:10572000F7EE000A30EE200AF2EE040A80EE201AAC
:10573000B0EE418AA348C06AC168A248C06AD0EDF1
:10574000010AB0EE601A9F48C06AD0ED020AB0EEBE
:10575000600AF0EE480A9B48FCF76AF827E1954892
:1057600000780D282ED19448007803282AD1954836
:10577000C06A90ED010AF2EE040A20EE200ABDEEA6
:10578000C00AB8EEC00AF7EE000A30EE200AF2EEC8
:10579000040A80EE201AB0EE418A8A48C06AC168C5
:1057A0008848C06A90ED001AF0EE410A8548C06A48
:1057B00090ED021AB0EE410AB0EE481A8148FCF7AB
:1057C00037F8F4E07B4800780D281ED17A4800783D
:1057D00004281AD17B48C06AC06800F10A017948E0
:1057E000C06AD0ED011AB0EE611A7648C06AD0EDF9
:1057F000001AF0EE610A7348C06AD0ED021AB0EEEA
:10580000610A7048FCF714F8D1E06A4800780F2864
:105810002ED16948007801282AD16B48C06A90EDE2
:10582000020AF2EE040A20EE200ABDEEC00AB8EE2B
:10583000C00AF7EE000A30EE200AF2EE040A80EE0B
:10584000201AB0EE418A6048C06AC1685E48C06AEA
:1058500090ED010AB0EE401A5B48C06A90ED000A74
:10586000F0EE400AB0EE480A5748FBF7E1FF9EE031
:10587000504800780F282ED14F48007802282AD1AE
:105880005148C06A90ED000AF2EE040A20EE200AA8
:10589000BDEEC00AB8EEC00AF7EE000A30EE200AEC
:1058A000F2EE040A80EE201AB0EE418A4648C06A41
:1058B000C1684548C06AD0ED010AB0EE601A42489E
:1058C000C06AD0ED020AB0EE600AF0EE480A3E4827
:1058D000FBF7AEFF6BE0374800780F282ED1364833
:1058E000007803282AD13848C06A90ED010AF2EE08
:1058F000040A20EE200ABDEEC00AB8EEC00AF7EE98
:10590000000A30EE200AF2EE040A80EE201AB0EE11
:10591000418A2D48C06AC1682B48C06A90ED001AC0
:10592000F0EE410A2848C06A90ED021AB0EE410A32
:10593000B0EE481A2448FBF77BFF38E01D4800789A
:105940000F281ED11C48007804281AD11E48C06AAE
:10595000C06800F10A011C48C06AD0ED011AB0EE1F
:10596000611A1948C06AD0ED001AF0EE610A1648B3
:10597000C06AD0ED021AB0EE610A1348FBF758FF77
:1059800015E00C480078052811DA0A48007800284C
:105990000DDD00200D490870032006490870002025
:1059A0000549087000F0C0FF012008490870BDECEF
:1059B000028B10BDD0010020D2010020A8000020E1
:1059C000BC0000203001002060010020D101002037
:1059D00010B52DED028BFE480078012821D1FD483D
:1059E000407801281DD1FC480078012819D1F948D8
:1059F00090ED030AF2EE040A20EE200ABDEEC00A82
:105A0000B8EEC00AF7EE000A30EE600AF2EE040AC1
:105A100080EE201AB0EE418AB0EE480AFCF710FE84
:105A2000ABE3EB480078012825D1EA48407802280A
:105A300021D1E948007802281DD1E64890ED040AFA
:105A4000F2EE040A20EE200ABDEEC00AB8EEC00A4B
:105A5000F7EE000A30EE600AF2EE040A80EE201A39
:105A6000B0EE418A90ED050AF0EE400AB0EE480A29
:105A7000FCF748FE81E3D6480078012825D1D548B7
:105A80004078022821D1D448007801281DD1D1487E
:105A900090ED050AF2EE040A20EE200ABDEEC00ADF
:105AA000B8EEC00AF7EE000A30EE600AF2EE040A21
:105AB00080EE201AB0EE418AD0ED040AB0EE600A02
:105AC000F0EE480AFCF71EFE57E3C14800780128B3
:105AD00021D1C048407803281DD1BF480078012853
